:020000020000FC
:100000000C94370400000000000000000000000015
:10001000000000000000A909DADBDCDDDDDDDDDD4C
:10002000DDDDDDDDDDDDDDDDDDDDDDDDDDDDDDDD00
:10003000DDDDDDDDDDDDDDDDDDDDDDDDDDDDDDDDF0
:10004000DDDDDDDDDDDDDDDDDDDDDDDDDDDDDDDDE0
:10005000DDDDDDDDDDDDDDDDDDDDDDDDDDDDDDDDD0
:10081000DDDDDDDDDDDDA900A901A902B0B1B2B3E6
:10082000B4B5B6B7B8B9BABB3196F83034F401E014
:10083000F00F0080F01B0C943404F0317CF408E0DD
:100840001BE024E03E2F4F2FF01B110F221FE10F62
:10085000F21F0490E32FF42F0C943404F4310CF4C1
:10086000989598950C943404000031960895F0E022
:10087000EBE0B1E0A0E0D8E0CFEFEE0FFF1F059076
:100880000D92BD17E1F7AC17D1F70C944704002483
:1008900011242224FF27EE27F8E0E0E0F83034F4BA
:1008A00001E0F00F0080F01B0C946D04F0317CF43B
:1008B00008E01BE024E03E2F4F2FF01B110F221FFA
:1008C000E10FF21F0490E32FF42F0C946D04F43128
:1008D0000CF4989598950C946D040000E395DECF88
:00000001FF
