:020000020000FC
:100000000C945104000000000000000000000000FB
:10001000000000000000A909DADBDCDDDDDDDDDD4C
:10002000DDDDDDDDDDDDDDDDDDDDDDDDDDDDDDDD00
:10003000DDDDDDDDDDDDDDDDDDDDDDDDDDDDDDDDF0
:10004000DDDDDDDDDDDDDDDDDDDDDDDDDDDDDDDDE0
:10005000DDDDDDDDDDDDDDDDDDDDDDDDDDDDDDDDD0
:10081000DDDDDDDDDDDDB0B1B2B3B4B5B6B7B8B99D
:10082000BABBF8302CF401E0F00F0190F01B0895F2
:10083000F0317CF408E01BE024E0F01BE10FF21F34
:10084000EE0FFF1F0490F695E595F00FF21BE10BFC
:100850000895F4310CF49895989508953196F830F0
:1008600034F401E0F00F0190F01B0C944F04F031D0
:1008700084F408E01BE024E0F01BE10FF21FEE0F10
:10088000FF1F0490F695E595F00FF21BE10B0C9419
:100890004F04F4310CF7989598950C944F043196C9
:1008A0000895F0E0EBE0B1E0A0E0D8E0CFEFEE0F8C
:1008B000FF1F05900D92BD17E1F7AC17D1F70C940F
:1008C0006104002411242224FF27EE27F8E00E946F
:0408D0002E04FCCF27
:00000001FF
