:020000020000FC
:100000000C943F050000000000000000000000000C
:10001000000000000000A909DADBDCDDDDDDDDDD4C
:10002000DDDDDDDDDDDDDDDDDDDDDDDDDDDDDDDD00
:10003000DDDDDDDDDDDDDDDDDDDDDDDDDDDDDDDDF0
:10004000DDDDDDDDDDDDDDDDDDDDDDDDDDDDDDDDE0
:10005000DDDDDDDDDDDDDDDDDDDDDDDDDDDDDDDDD0
:10081000DDDDDDDDDDDDA900A901A902A903A90453
:10082000B4B5B6B7B8B9BABB989598950E2FE42F62
:10083000402F0F2FF52F502F3196F83034F401E070
:10084000F00F2080F01B0C943C04F0317CF408E0A5
:100850001BE024E03E2F4F2FF01B110F221FE10F52
:10086000F21F2490E32FF42F0C943C04F4310CF489
:10087000989598950C943C040000319608951504C1
:1008800014041404140414041404140414041404A8
:100890001404140414041404140414041404140498
:1008A0001404140414041404140414041404140488
:1008B0001404140414041404140414041404140478
:1008C0001404140414041404140414041404140468
:1008D0001404140414041404140414041404140458
:1008E0001404140414041404140414041404140448
:1008F0001404140414041404140414041404140438
:100900001404140414041404140414041404140427
:100910001404140414041404140414041404140417
:100920001404140414041404140414041404140407
:1009300014041404140414041404140414041404F7
:1009400014041404140414041404140414041404E7
:1009500014041404140414041404140414041404D7
:1009600014041404140414041404140414041404C7
:1009700014041404140414041404140414041404B7
:1009800014041404140414041404140414041404A7
:100990001404140414041404140414041404140497
:1009A0001404140414041404140414041404140487
:1009B0001404140414041404140414041404140477
:1009C0001404140414041404140414041404140467
:1009D0001604140414041404140414041404140455
:1009E0001404140414041404140414041404140447
:1009F0001404140414041404140414041404140437
:100A00001404140414041404140414041404140426
:100A10001404140414041404140414041404140416
:100A20001404140414041404140414041404140406
:100A300014041404140414041404140414041404F6
:100A400014041404140414041404140414041404E6
:100A500014041404140414041404140414041404D6
:100A600014041404140414041404140414041404C6
:100A70001404140414041404140414041404F0E0FE
:100A8000EBE0B1E0A0E0D8E0CFEFEE0FFF1F059064
:100A90000D92BD17E1F7AC17D1F70C944F05222446
:100AA00033244424FF27EE27BB27AA27DD27CC27A2
:100AB0000024F8E0E0E058E040E00000F83034F4D2
:100AC00001E0F00F4080F01B0C947D05F0317CF4C8
:100AD00008E01BE024E03E2F4F2FF01B110F221FD8
:100AE000E10FF21F4490E32FF42F0C947D05F431B5
:100AF0000CF4989598950C947D05000002E0409EBA
:100B00004E2F5F2FEEE7F8E0E00DF11D05901490F9
:080B1000E02DF12D0995D1CF74
:00000001FF
