:020000020000FC
:100000000C94AC050000000000000000000000009F
:10001000000000000000A909DADBDCDDDDDDDDDD4C
:10002000DDDDDDDDDDDDDDDDDDDDDDDDDDDDDDDD00
:10003000DDDDDDDDDDDDDDDDDDDDDDDDDDDDDDDDF0
:10004000DDDDDDDDDDDDDDDDDDDDDDDDDDDDDDDDE0
:10005000DDDDDDDDDDDDDDDDDDDDDDDDDDDDDDDDD0
:10081000DDDDDDDDDDDDA900AD0300ABCD02A9032B
:10082000A904B4B5B6B7B8B9BABB989598950E2FC8
:10083000E42F402F0F2FF52F502F3196F83034F43E
:1008400001E0F00F2080F01B0C943D04F0317CF4AB
:1008500008E01BE024E03E2F4F2FF01B110F221F5A
:10086000E10FF21F2490E32FF42F0C943D04F43198
:100870000CF4989598950C943D04000031960895D9
:100880000E2FE42F402F0F2FF52F502F3196F830D9
:1008900034F401E0F00F6081F01B0C946604F03139
:1008A0007CF408E01BE024E03E2F4F2FF01B110FDB
:1008B000221FE10FF21F6491E32FF42F0C946604C2
:1008C000F4310CF4989598950C94660400003196D8
:1008D000F83034F401E0F00F7081F01B0C948704C1
:1008E000F0317CF408E01BE024E03E2F4F2FF01B9A
:1008F000110F221FE10FF21F7491E32FF42F0C94BC
:100900008704F4310CF4989598950C9487040000B2
:10091000E62FF72FF83034F401E0F00F2080F01BC1
:100920000C94A904F0317CF408E01BE024E03E2F95
:100930004F2FF01B110F221FE10FF21F2490E32F06
:10094000F42F0C94A904F4310CF4989598950C9418
:10095000A904000031960895160415041504150421
:1009600015041504150415041504150415041504BF
:1009700015041504150415041504150415041504AF
:10098000150415041504150415041504150415049F
:10099000150415041504150415041504150415048F
:1009A000150415041504150415041504150415047F
:1009B000150415041504150415041504150415046F
:1009C000150415041504150415041504150415045F
:1009D000150415041504150415041504150415044F
:1009E000150415041504150415041504150415043F
:1009F000150415041504150415041504150415042F
:100A0000150415041504150415041504150415041E
:100A1000150415041504150415041504150415040E
:100A200015041504150415041504150415041504FE
:100A300015041504150415041504150415041504EE
:100A400015041504150415041504150415041504DE
:100A500015041504150415041504150415041504CE
:100A600015041504150415041504150415041504BE
:100A700015041504150415041504150415041504AE
:100A8000150415041504150415041504150415049E
:100A9000150415041504150415041504150415048E
:100AA000150415041504150415041704150415047C
:100AB0001504400415041504150415041504150443
:100AC000150415041504150415041504150415045E
:100AD000150415041504150415041504150415044E
:100AE000150415041504150415041504150415043E
:100AF000150415041504150415041504150415042E
:100B0000150415041504150415041504150415041D
:100B1000150415041504150415041504150415040D
:100B200015041504150415041504150415041504FD
:100B300015041504150415041504150415041504ED
:100B400015041504150415041504150415041504DD
:100B50001504150415041504F0E0EBE0B1E0A0E085
:100B6000D8E0CFEFEE0FFF1F05900D92BD17E1F714
:100B7000AC17D1F70C94BC05222433244424FF275E
:100B8000EE27BB27AA27DD27CC270024F8E0E0E0EA
:100B900058E040E00000F83034F401E0F00F40800D
:100BA000F01B0C94EA05F0317CF408E01BE024E033
:100BB0003E2F4F2FF01B110F221FE10FF21F449009
:100BC000E32FF42F0C94EA05F4310CF498959895E2
:100BD0000C94EA05000002E0409E4E2F5F2FE8E5EE
:100BE000F9E0E00DF11D05901490E02DF12D09952F
:020BF000D1CF63
:00000001FF
