:020000020000FC
:100000000C94340400000000000000000000000018
:10001000000000000000A909DADBDCDDDDDDDDDD4C
:10002000DDDDDDDDDDDDDDDDDDDDDDDDDDDDDDDD00
:10003000DDDDDDDDDDDDDDDDDDDDDDDDDDDDDDDDF0
:10004000DDDDDDDDDDDDDDDDDDDDDDDDDDDDDDDDE0
:10005000DDDDDDDDDDDDDDDDDDDDDDDDDDDDDDDDD0
:10081000DDDDDDDDDDDDB0B1B2B3B4B5B6B7B8B99D
:10082000BABB31960000F83034F401E0F00F0080DC
:10083000F01B0C943004F0316CF408E01BE024E071
:10084000F01B110F221FE10FF21F0490F21BE10BAE
:100850000C943004F4310CF4989598950C94300471
:100860000000000031960895F0E0EBE0B1E0A0E078
:10087000D8E0CFEFEE0FFF1F05900D92BD17E1F707
:10088000AC17D1F70C944404002411242224FF2730
:0A089000EE27F8E00E941104FCCFEF
:00000001FF
