:020000020000FC
:100000000C943E050000000000000000000000000D
:10001000000000000000A909DADBDCDDDDDDDDDD4C
:10002000DDDDDDDDDDDDDDDDDDDDDDDDDDDDDDDD00
:10003000DDDDDDDDDDDDDDDDDDDDDDDDDDDDDDDDF0
:10004000DDDDDDDDDDDDDDDDDDDDDDDDDDDDDDDDE0
:10005000DDDDDDDDDDDDDDDDDDDDDDDDDDDDDDDDD0
:10081000DDDDDDDDDDDDA900A901A902B0B1B2B3E6
:10082000B4B5B6B7B8B9BABB98950E2FE42F402F20
:100830000F2FF52F502F3196F83034F401E0F00FE0
:100840002080F01B0C943B04F0317CF408E01BE0AA
:1008500024E03E2F4F2FF01B110F221FE10FF21F3C
:100860002490E32FF42F0C943B04F4310CF498956E
:1008700098950C943B0400003196089514041404D8
:1008800014041404140414041404140414041404A8
:100890001404140414041404140414041404140498
:1008A0001404140414041404140414041404140488
:1008B0001404140414041404140414041404140478
:1008C0001404140414041404140414041404140468
:1008D0001404140414041404140414041404140458
:1008E0001404140414041404140414041404140448
:1008F0001404140414041404140414041404140438
:100900001404140414041404140414041404140427
:100910001404140414041404140414041404140417
:100920001404140414041404140414041404140407
:1009300014041404140414041404140414041404F7
:1009400014041404140414041404140414041404E7
:1009500014041404140414041404140414041404D7
:1009600014041404140414041404140414041404C7
:1009700014041404140414041404140414041404B7
:1009800014041404140414041404140414041404A7
:100990001404140414041404140414041404140497
:1009A0001404140414041404140414041404140487
:1009B0001404140414041404140414041404140477
:1009C0001404140414041404140414041404150466
:1009D0001404140414041404140414041404140457
:1009E0001404140414041404140414041404140447
:1009F0001404140414041404140414041404140437
:100A00001404140414041404140414041404140426
:100A10001404140414041404140414041404140416
:100A20001404140414041404140414041404140406
:100A300014041404140414041404140414041404F6
:100A400014041404140414041404140414041404E6
:100A500014041404140414041404140414041404D6
:100A600014041404140414041404140414041404C6
:100A7000140414041404140414041404F0E0EBE04B
:100A8000B1E0A0E0D8E0CFEFEE0FFF1F05900D9290
:100A9000BD17E1F7AC17D1F70C944E05222433248F
:100AA0004424FF27EE27BB27AA27DD27CC270024D5
:100AB000F8E0E0E058E040E00000E42FF52FF830E7
:100AC00034F401E0F00F4080F01B0C947E05F0310F
:100AD0007CF408E01BE024E03E2F4F2FF01B110FA9
:100AE000221FE10FF21F4490E32FF42F0C947E0598
:100AF000F4310CF4989598950C947E05000002E072
:100B0000409E4E2F5F2FECE7F8E0E00DF11D0590C1
:0A0B10001490E02DF12D0995CFCFD0
:00000001FF
